:100000000C945E000C94E6020C940D030C94860094
:100010000C9486000C9486000C9486000C94890243
:100020000C9486000C9486000C9486000C94BB04FF
:100030000C9486000C9486000C9486000C94860028
:100040000C9445030C9486000C9498010C94CA01FE
:100050000C9486000C9486000C9486000C94860008
:100060000C9486000C948600020000000800020137
:10007000000003040700000000000000000102046B
:10008000081020408001020408102001020408101A
:100090002004040404040404040202020202020311
:1000A000030303030300000000250028002B0000C9
:1000B000000000240027002A0000FA0111241FBEBE
:1000C000CFEFD8E0DEBFCDBF11E0A0E0B1E0ECEFB4
:1000D000FAE002C005900D92A831B107D9F721E0EE
:1000E000A8E1B1E001C01D92A23FB207E1F710E024
:1000F000CEE5D0E004C02197FE010E947605CD3503
:10010000D107C9F70E9436030C947C050C940000BB
:10011000CF93DF93C9E1D1E08DE0888381E08983CB
:1001200061E08DE00E945104D0931E01C0931D0137
:1001300088E191E090931C0180931B01DF91CF91A6
:100140000895E0911D01F0911E0161E080810E94FF
:100150008D0468EE73E080E090E00E94B403E091CB
:100160001D01F0911E0160E080810E948D0468EE07
:1001700073E080E090E00E94B403E3CFFC01918D36
:10018000228D892F90E0805C9F4F821B91098F7395
:1001900099270895FC01918D828D981731F0828DF9
:1001A000E80FF11D858D90E008958FEF9FEF089582
:1001B000FC01918D828D981761F0A28DAE0FBF2F3B
:1001C000B11D5D968C91928D9F5F9F73928F90E091
:1001D00008958FEF9FEF0895FC01538D448D252FD7
:1001E00030E0842F90E0821B930B541710F0CF96D1
:1001F00008950197089580EF91E0892B49F080E000
:1002000090E0892B29F00E94F00181110C940000EC
:100210000895FC01A48DA80FB92FB11DA35ABF4F9B
:100220002C91848D90E001968F739927848FA689F5
:10023000B7892C93A089B1898C91837080648C9349
:10024000938D848D981306C00288F389E02D8081F8
:100250008F7D80830895CF93DF93EC01888D882371
:10026000B9F0AA89BB89E889F9898C9185FD03C019
:10027000808186FD0DC00FB607FCF7CF8C9185FFFE
:10028000F2CF808185FFEDCFCE010E940901E9CF39
:10029000DF91CF910895EF92FF920F931F93CF9329
:1002A000DF93EC0181E0888F9B8D8C8D98131AC0B1
:1002B000E889F989808185FF15C09FB7F894EE8998
:1002C000FF896083E889F9898081837080648083F5
:1002D0009FBF81E090E0DF91CF911F910F91FF9040
:1002E000EF900895F62E0B8D10E00F5F1F4F0F73E8
:1002F0001127E02E8C8D8E110CC00FB607FCFACFA3
:10030000E889F989808185FFF5CFCE010E94090136
:10031000F1CFEB8DEC0FFD2FF11DE35AFF4FF08273
:100320009FB7F8940B8FEA89FB8980818062CFCFD9
:100330001F920F920FB60F9211242F938F939F93BA
:10034000EF93FF93E0912F01F09130018081E091D4
:100350003501F091360182FD1BC0908180913801FA
:100360008F5F8F7320913901821741F0E09138013E
:10037000F0E0E15EFE4F958F80933801FF91EF91A1
:100380009F918F912F910F900FBE0F901F901895F6
:100390008081F4CF1F920F920FB60F9211242F93EA
:1003A0003F934F935F936F937F938F939F93AF93FD
:1003B000BF93EF93FF938FE191E00E940901FF91BA
:1003C000EF91BF91AF919F918F917F916F915F91CD
:1003D0004F913F912F910F900FBE0F901F90189546
:1003E0008FE191E00E94BE0021E0892B09F420E01A
:1003F000822F0895EFE1F1E01382128288EE93E0FC
:10040000A0E0B0E084839583A683B78389E091E080
:100410009183808385EC90E09587848784EC90E0DD
:100420009787868780EC90E0918B808B81EC90E0C1
:10043000938B828B82EC90E0958B848B86EC90E0A2
:10044000978B868B118E128E138E148E0895AF9219
:10045000BF92CF92DF92EF92FF920F931F93CF93B1
:10046000DF936C017B018B01040F151FEB015E0113
:10047000AE18BF08C017D10759F06991D601ED91A8
:10048000FC910190F081E02DC6010995892B79F747
:10049000C501DF91CF911F910F91FF90EF90DF90F9
:1004A000CF90BF90AF900895813039F018F082302E
:1004B00051F0089510926E00089580916F008D7F25
:1004C00080936F000895809170008D7F80937000FD
:1004D00081E08093B0008091B100887F8460809338
:1004E000B1001092B3000895CF93C82F80910001FE
:1004F000C8130DC0E8E6F0E084919FEF90930001EF
:100500000E94540260E08C2FCF910C948D048FEFE9
:10051000F7CF1F920F920FB60F9211242F933F9394
:100520004F935F936F937F938F939F93AF93BF93FB
:10053000EF93FF938091BF019091C001A091C10101
:10054000B091C201892B8A2B8B2BD1F19091BC01E8
:10055000E091BD01F091BE01808189278083809167
:10056000BF019091C001A091C101B091C2011816C4
:1005700019061A061B069CF48091BF019091C001D8
:10058000A091C101B091C2010197A109B109809365
:10059000BF019093C001A093C101B093C201FF912C
:1005A000EF91BF91AF919F918F917F916F915F91EB
:1005B0004F913F912F910F900FBE0F901F90189564
:1005C000809100010E947402EACF08951F920F9259
:1005D0000FB60F9211242F933F934F935F936F9316
:1005E0007F938F939F93AF93BF93EF93FF93E0918C
:1005F0000101F09102010995FF91EF91BF91AF9137
:100600009F918F917F916F915F914F913F912F912A
:100610000F900FBE0F901F9018951F920F920FB65C
:100620000F9211242F933F934F935F936F937F9378
:100630008F939F93AF93BF93EF93FF93E091030149
:10064000F09104010995FF91EF91BF91AF919F91B6
:100650008F917F916F915F914F913F912F910F906B
:100660000FBE0F901F901895089508950E94ED03F6
:100670000E9435030E948800CBEFD0E00E94A100C9
:100680002097E1F30E94FB00F9CF1F920F920FB663
:100690000F9211242F933F938F939F93AF93BF9308
:1006A0008091C4019091C501A091C601B091C7018C
:1006B0003091C30123E0230F2D3758F50196A11D7A
:1006C000B11D2093C3018093C4019093C501A093F1
:1006D000C601B093C7018091C8019091C901A09152
:1006E000CA01B091CB010196A11DB11D8093C80133
:1006F0009093C901A093CA01B093CB01BF91AF9170
:100700009F918F913F912F910F900FBE0F901F904F
:10071000189526E8230F0296A11DB11DD2CF3FB731
:10072000F8948091C8019091C901A091CA01B0913B
:10073000CB0126B5A89B05C02F3F19F00196A11D3E
:10074000B11D3FBFBA2FA92F982F8827BC01CD011B
:10075000620F711D811D911D42E0660F771F881F7A
:10076000991F4A95D1F708958F929F92AF92BF92A9
:10077000CF92DF92EF92FF926B017C010E948F0378
:100780004B015C01C114D104E104F104E9F00E94C1
:1007900034030E948F03681979098A099B09683E0E
:1007A00073408105910570F321E0C21AD108E10878
:1007B000F10888EE880E83E0981EA11CB11CC114BC
:1007C000D104E104F10429F7FF90EF90DF90CF907E
:1007D000BF90AF909F908F900895789484B5826079
:1007E00084BD84B5816084BD85B5826085BD85B5D5
:1007F000816085BDEEE6F0E0808181608083E1E884
:10080000F0E01082808182608083808181608083BB
:10081000E0E8F0E0808181608083E1EBF0E08081BE
:1008200084608083E0EBF0E0808181608083EAE790
:10083000F0E0808184608083808182608083808119
:10084000816080838081806880831092C1000895D8
:10085000833081F028F4813099F08230A9F0089536
:100860008730A9F08830C9F08430B1F480918000DD
:100870008F7D03C0809180008F77809380000895E2
:1008800084B58F7784BD089584B58F7DFBCF80912B
:10089000B0008F778093B00008958091B0008F7D75
:1008A000F9CFCF93DF9390E0FC01E358FF4F249101
:1008B0008F569F4FFC0184918823C9F090E0880FE8
:1008C000991FFC01E155FF4FA591B491FC01EB5537
:1008D000FF4FC591D49161110DC09FB7F8948C91D1
:1008E000209582238C938881282328839FBFDF91C2
:1008F000CF910895623051F49FB7F8943C91822FC4
:10090000809583238C93E8812E2BEFCF8FB7F894BB
:10091000EC912E2B2C938FBFEACF1F93CF93DF93B5
:10092000282F30E0F901E759FF4F8491F901E3588E
:10093000FF4FD491F901EF56FF4FC491CC23A9F09A
:10094000162F81110E942804EC2FF0E0EE0FFF1FFC
:10095000EB55FF4FA591B4918FB7F894EC9111111D
:1009600008C0D095DE23DC938FBFDF91CF911F911C
:100970000895DE2BF8CF1F920F920FB60F9211241D
:100980002F933F934F935F936F937F938F939F9397
:10099000AF93BF93EF93FF938091CD0187FF27C063
:1009A00010928500109284008091CD018F5F80931A
:1009B000CD018091CD01082E000C990B2091CC0126
:1009C0002817190629F024F08091CD018C30DCF134
:1009D0008091840090918500049680349C4908F4AD
:1009E0007BC08091840090918500049677C08091AF
:1009F000CD01082E000C990B2091CC012817190667
:100A000099F294F2E091CD018E2FEE0F990BFC013B
:100A1000EE0FFF1FE80FF91FE253FE4F808186FFA4
:100A2000C3CFE091CD018E2FEE0F990BFC01EE0F9D
:100A3000FF1FE80FF91FE253FE4F808160E08F73C4
:100A40000E948D04B1CF2091840030918500E09107
:100A5000CD018E2FEE0F990BFC01EE0FFF1FE80F5B
:100A6000F91FE253FE4F81819281820F931F909371
:100A7000890080938800E091CD018E2FEE0F990BB5
:100A8000FC01EE0FFF1FE80FF91FE253FE4F8081BC
:100A900086FF11C0E091CD018E2FEE0F990BFC0166
:100AA000EE0FFF1FE80FF91FE253FE4F808161E058
:100AB0008F730E948D04FF91EF91BF91AF919F9131
:100AC0008F917F916F915F914F913F912F910F90F7
:100AD0000FBE0F901F90189580E49CE990938900B9
:100AE000809388008FEF8093CD01E5CFEE0FFF1F3D
:0C0AF0000590F491E02D0994F894FFCFDC
:100AFC00FFE502E502000000004B012702EC002B91
:080B0C0001BE00D800CA000080
:00000001FF
