:100000000C945F000C94FC020C9423030C94870066
:100010000C9487000C9487000C9487000C949F022A
:100020000C9487000C9487000C9487000C941205A4
:100030000C9487000C9487000C9487000C94870024
:100040000C949C030C9487000C94AE010C94E0017A
:100050000C9487000C9487000C9487000C94870004
:100060000C9487000C948700020000000800020135
:10007000000003040700000000000000000102046B
:10008000081020408001020408102001020408101A
:100090002004040404040404040202020202020311
:1000A000030303030300000000250028002B0000C9
:1000B000000000240027002A0000D00010021124B4
:1000C0001FBECFEFD8E0DEBFCDBF11E0A0E0B1E0B2
:1000D000ECEFFEE002C005900D92A831B107D9F710
:1000E00021E0A8E1B1E001C01D92A33FB207E1F712
:1000F00010E0CFE5D0E004C02197FE010E94670721
:10010000CD35D107C9F70E948D030C947C070C9460
:100110000000EF92FF920F931F93CF93DF93EC01B8
:100120007B018A01EC16FD0684F0BE0180911C0162
:1001300090911D010E94A4066FE070E080E090E0C5
:100140000E940B04C00FD11FEDCFDF91CF911F9103
:100150000F91FF90EF9008958BE191E090931F0134
:1001600080931E0169E070E088E191E00E946706DB
:1001700088E191E090931D0180931C01089541E076
:1001800050E064EB70E090E080E00E9489004FEF67
:100190005FEF70E060E084EB90E00E948900EFCFB9
:1001A00088E191E00C94CD05FC01918D228D892F81
:1001B00090E0805C9F4F821B91098F73992708956F
:1001C000FC01918D828D981731F0828DE80FF11D21
:1001D000858D90E008958FEF9FEF0895FC01918D3C
:1001E000828D981761F0A28DAE0FBF2FB11D5D9665
:1001F0008C91928D9F5F9F73928F90E008958FEF07
:100200009FEF0895FC01538D448D252F30E0842FFE
:1002100090E0821B930B541710F0CF96089501972E
:10022000089586E092E0892B49F080E090E0892BE8
:1002300029F00E94060281110C9400000895FC012F
:10024000A48DA80FB92FB11DA35ABF4F2C91848D37
:1002500090E001968F739927848FA689B7892C9394
:10026000A089B1898C91837080648C93938D848DE7
:10027000981306C00288F389E02D80818F7D8083EA
:100280000895CF93DF93EC01888D8823B9F0AA8974
:10029000BB89E889F9898C9185FD03C0808186FD41
:1002A0000DC00FB607FCF7CF8C9185FFF2CF808190
:1002B00085FFEDCFCE010E941F01E9CFDF91CF91E5
:1002C0000895EF92FF920F931F93CF93DF93EC016A
:1002D00081E0888F9B8D8C8D98131AC0E889F989ED
:1002E000808185FF15C09FB7F894EE89FF896083F0
:1002F000E889F98980818370806480839FBF81E071
:1003000090E0DF91CF911F910F91FF90EF900895B2
:10031000F62E0B8D10E00F5F1F4F0F731127E02E8D
:100320008C8D8E110CC00FB607FCFACFE889F989C5
:10033000808185FFF5CFCE010E941F01F1CFEB8DAB
:10034000EC0FFD2FF11DE35AFF4FF0829FB7F89499
:100350000B8FEA89FB8980818062CFCF1F920F9239
:100360000FB60F9211242F938F939F93EF93FF93C8
:10037000E0913001F09131018081E0913601F091FE
:10038000370182FD1BC09081809139018F5F8F738F
:1003900020913A01821741F0E0913901F0E0E05EEE
:1003A000FE4F958F80933901FF91EF919F918F912F
:1003B0002F910F900FBE0F901F9018958081F4CF52
:1003C0001F920F920FB60F9211242F933F934F93CA
:1003D0005F936F937F938F939F93AF93BF93EF93AD
:1003E000FF9380E291E00E941F01FF91EF91BF9186
:1003F000AF919F918F917F916F915F914F913F91BD
:100400002F910F900FBE0F901F90189580E291E0F2
:100410000E94D40021E0892B09F420E0822F089566
:10042000E0E2F1E01382128288EE93E0A0E0B0E017
:1004300084839583A683B78389E091E09183808349
:1004400085EC90E09587848784EC90E09787868799
:1004500080EC90E0918B808B81EC90E0938B828B91
:1004600082EC90E0958B848B86EC90E0978B868B6A
:10047000118E128E138E148E0895AF92BF92CF926A
:10048000DF92EF92FF920F931F93CF93DF936C0154
:100490007B018B01040F151FEB015E01AE18BF0835
:1004A000C017D10759F06991D601ED91FC910190E7
:1004B000F081E02DC6010995892B79F7C501DF91FF
:1004C000CF911F910F91FF90EF90DF90CF90BF9051
:1004D000AF900895813039F018F0823051F00895CE
:1004E00010926E00089580916F008D7F80936F0051
:1004F0000895809170008D7F8093700081E08093DB
:10050000B0008091B100887F84608093B100109228
:10051000B3000895CF93C82F80910001C8130DC078
:10052000E8E6F0E084919FEF909300010E946A0258
:1005300060E08C2FCF910C94E4048FEFF7CF1F92E3
:100540000F920FB60F9211242F933F934F935F9307
:100550006F937F938F939F93AF93BF93EF93FF938B
:100560008091C0019091C101A091C201B091C301DD
:10057000892B8A2B8B2BD1F19091BD01E091BE018B
:10058000F091BF018081892780838091C001909183
:10059000C101A091C201B091C301181619061A0633
:1005A0001B069CF48091C0019091C101A091C201F1
:1005B000B091C3010197A109B1098093C001909343
:1005C000C101A093C201B093C301FF91EF91BF910C
:1005D000AF919F918F917F916F915F914F913F91DB
:1005E0002F910F900FBE0F901F90189580910001D2
:1005F0000E948A02EACF08951F920F920FB60F92BF
:1006000011242F933F934F935F936F937F938F9317
:100610009F93AF93BF93EF93FF93E0910101F0910C
:1006200002010995FF91EF91BF91AF919F918F9139
:100630007F916F915F914F913F912F910F900FBEDE
:100640000F901F9018951F920F920FB60F921124C2
:100650002F933F934F935F936F937F938F939F93CA
:10066000AF93BF93EF93FF93E0910301F0910401E7
:100670000995FF91EF91BF91AF919F918F917F91DC
:100680006F915F914F913F912F910F900FBE0F90FF
:100690001F9018954F925F926F927F92AF92BF9288
:1006A000CF92DF92EF92FF920F931F93CF93DF933E
:1006B000CDB7DEB729013A019B01AC0124193509F8
:1006C0004609570989899A89AB89BC89BC01CD0142
:1006D0006A197B098C099D090E94FF06A8019701F0
:1006E00024193509460957090E943D07CA01B90175
:1006F0006A0D7B1D8C1D9D1DDF91CF911F910F9168
:10070000FF90EF90DF90CF90BF90AF907F906F9071
:100710005F904F900895089508950E9444040E94A8
:100720008C030E94AC00C1E1D1E00E94BF00209781
:10073000E1F30E941101F9CF1F920F920FB60F92B1
:1007400011242F933F938F939F93AF93BF938091E7
:10075000C5019091C601A091C701B091C801309127
:10076000C40123E0230F2D3758F50196A11DB11DBB
:100770002093C4018093C5019093C601A093C70143
:10078000B093C8018091C9019091CA01A091CB0199
:10079000B091CC010196A11DB11D8093C901909328
:1007A000CA01A093CB01B093CC01BF91AF919F91AF
:1007B0008F913F912F910F900FBE0F901F90189522
:1007C00026E8230F0296A11DB11DD2CF3FB7F894A2
:1007D0008091C9019091CA01A091CB01B091CC0147
:1007E00026B5A89B05C02F3F19F00196A11DB11D8C
:1007F0003FBFBA2FA92F982F8827BC01CD01620FC8
:10080000711D811D911D42E0660F771F881F991F82
:100810004A95D1F708958F929F92AF92BF92CF924F
:10082000DF92EF92FF926B017C010E94E6034B0185
:100830005C01C114D104E104F104E9F00E948B03CE
:100840000E94E603681979098A099B09683E73408A
:100850008105910570F321E0C21AD108E108F10881
:1008600088EE880E83E0981EA11CB11CC114D1042F
:10087000E104F10429F7FF90EF90DF90CF90BF9053
:10088000AF909F908F900895789484B5826084BDD6
:1008900084B5816084BD85B5826085BD85B5816084
:1008A00085BDEEE6F0E0808181608083E1E8F0E0E4
:1008B0001082808182608083808181608083E0E813
:1008C000F0E0808181608083E1EBF0E080818460F2
:1008D0008083E0EBF0E0808181608083EAE7F0E0F4
:1008E0008081846080838081826080838081816058
:1008F00080838081806880831092C1000895833056
:1009000081F028F4813099F08230A9F00895873081
:10091000A9F08830C9F08430B1F4809180008F7DD7
:1009200003C0809180008F7780938000089584B504
:100930008F7784BD089584B58F7DFBCF8091B00003
:100940008F778093B00008958091B0008F7DF9CFAC
:10095000CF93DF9390E0FC01E358FF4F24918F5633
:100960009F4FFC0184918823C9F090E0880F991F64
:10097000FC01E155FF4FA591B491FC01EB55FF4FF0
:10098000C591D49161110DC09FB7F8948C912095B9
:1009900082238C938881282328839FBFDF91CF9166
:1009A0000895623051F49FB7F8943C91822F80955E
:1009B00083238C93E8812E2BEFCF8FB7F894EC91A3
:1009C0002E2B2C938FBFEACF1F93CF93DF93282F2B
:1009D00030E0F901E759FF4F8491F901E358FF4FE7
:1009E000D491F901EF56FF4FC491CC23A9F0162FF3
:1009F00081110E947F04EC2FF0E0EE0FFF1FEB55FA
:100A0000FF4FA591B4918FB7F894EC91111108C0E4
:100A1000D095DE23DC938FBFDF91CF911F91089596
:100A2000DE2BF8CF1F920F920FB60F9211242F9347
:100A30003F934F935F936F937F938F939F93AF9366
:100A4000BF93EF93FF938091CE0187FF27C0109251
:100A50008500109284008091CE018F5F8093CE013B
:100A60008091CE01082E000C990B2091CD01281702
:100A7000190629F024F08091CE018C30DCF18091B0
:100A8000840090918500049680349C4908F47BC0D2
:100A90008091840090918500049677C08091CE016A
:100AA000082E000C990B2091CD012817190699F2F8
:100AB00094F2E091CE018E2FEE0F990BFC01EE0F18
:100AC000FF1FE80FF91FE153FE4F808186FFC3CF60
:100AD000E091CE018E2FEE0F990BFC01EE0FFF1F60
:100AE000E80FF91FE153FE4F808160E08F730E9491
:100AF000E404B1CF2091840030918500E091CE01D3
:100B00008E2FEE0F990BFC01EE0FFF1FE80FF91F60
:100B1000E153FE4F81819281820F931F9093890050
:100B200080938800E091CE018E2FEE0F990BFC018F
:100B3000EE0FFF1FE80FF91FE153FE4F808186FF84
:100B400011C0E091CE018E2FEE0F990BFC01EE0F3C
:100B5000FF1FE80FF91FE153FE4F808161E08F73A3
:100B60000E94E404FF91EF91BF91AF919F918F910B
:100B70007F916F915F914F913F912F910F900FBE99
:100B80000F901F90189580E49CE9909389008093C2
:100B900088008FEF8093CE01E5CFFC019091CD01CD
:100BA0009C3098F481E0890F8093CD019083892F48
:100BB00090E0FC01EE0FFF1FE80FF91FE153FE4F1D
:100BC00088EB9BE09283818308958FEF8083089563
:100BD000DF92EF92FF920F931F93CF93DF93EC017D
:100BE000D62E7A01890188818C3008F067C061E0D7
:100BF0008D2D0E94A8048881282F30E0F901EE0F86
:100C0000FF1FE20FF31FE153FE4F9D2D9F73608185
:100C1000607C692B608320E232E02E193F0937FFA8
:100C200002C02D5F3F4F3595279535952795298330
:100C300020E639E0201B310B37FF02C02D5F3F4F0C
:100C400035952795359527952A832CE0622F0E94AC
:100C50000F07829FB001112430E020E0AB01420F6A
:100C6000531FFA01EE0FFF1FE40FF51FE153FE4F74
:100C7000908196FD16C02F5F3F4F2C30310571F7E4
:100C800081110FC01092800082E080938100109249
:100C9000850010928400B19A80916F0082608093E9
:100CA0006F00E8818E2F90E0FC01EE0FFF1FE80F30
:100CB000F91FE153FE4F8081806480838881DF913A
:100CC000CF911F910F91FF90EF90DF90089520E654
:100CD00039E040E252E00C94E805DC01EC91EC30A4
:100CE00090F511968C91119728E830E0281B310976
:100CF00087FD3395220F331F220F331F62177307AF
:100D000084F012968C9128E532E0281B310987FD8A
:100D10003395220F331F220F331F621773070CF412
:100D20009B0122503109220F331F4FB7F8948E2FA9
:100D300090E0FC01EE0FFF1FE80FF91FE153FE4F9B
:100D4000328321834FBF0895AF92BF92CF92DF923B
:100D5000EF92FF920F931F93CF93DF93EC016032DA
:100D600082E078070CF03EC0653B710514F064EB3F
:100D700070E0898148E8A42EB12CA81AB10887FD3B
:100D8000B394AA0CBB1CAA0CBB1C0B2C000CCC08EB
:100D9000DD0877FF02C070E060E0072E000C880BD2
:100DA000990B2A8108E512E0021B110927FD139512
:100DB000000F111F000F111F012E000C220B330B0F
:100DC0003F932F931F930F9314EBE12EF12C00E030
:100DD00010E020E030E0A9010E944A030F900F903C
:100DE0000F900F90CE01DF91CF911F910F91FF9047
:100DF000EF90DF90CF90BF90AF900C946D06DB0129
:100E00008F939F930E945C07BF91AF91A29F800D2B
:100E1000911DA39F900DB29F900D11240895991BD1
:100E200079E004C0991F961708F0961B881F7A95E1
:100E3000C9F780950895A1E21A2EAA1BBB1BFD01DC
:100E40000DC0AA1FBB1FEE1FFF1FA217B307E407A9
:100E5000F50720F0A21BB30BE40BF50B661F771F01
:100E6000881F991F1A9469F76095709580959095E1
:100E70009B01AC01BD01CF010895052E97FB1EF427
:100E800000940E94540757FD07D00E941B0707FCDF
:100E900003D04EF40C94540750954095309521950D
:100EA0003F4F4F4F5F4F0895909580957095619596
:100EB0007F4F8F4F9F4F08950E946D07A59F900D04
:100EC000B49F900DA49F800D911D11240895EE0FE5
:100ED000FF1F0590F491E02D0994A29FB001B39FEC
:100EE000C001A39F700D811D1124911DB29F700D33
:0C0EF000811D1124911D0895F894FFCF7E
:100EFC00FFFB02FB020000000061013D0202014108
:080F0C0001D400EE00E000003A
:00000001FF
