:100000000C945E000C9483030C94AA030C94860059
:100010000C9486000C9486000C9486000C942603A5
:100020000C9486000C9486000C9486000C94580561
:100030000C9486000C9486000C9486000C94860028
:100040000C94E2030C9486000C940B020C943D0279
:100050000C9486000C9486000C9486000C94860008
:100060000C9486000C948600020000000800020137
:10007000000003040700000000000000000102046B
:10008000081020408001020408102001020408101A
:100090002004040404040404040202020202020311
:1000A000030303030300000000250028002B0000C9
:1000B000000000240027002A00006D0211241FBE4A
:1000C000CFEFD8E0DEBFCDBF11E0A0E0B1E0EAE7BE
:1000D000FCE002C005900D92A233B107D9F722E0EF
:1000E000A2E3B1E001C01D92AC30B207E1F710E02D
:1000F000CEE5D0E004C02197FE010E943506CD3543
:10010000D107C9F70E94D3030C943B060C9400005E
:10011000CF93DF9384E391E090933801809337018C
:10012000C2E3D1E08DE0888381E0898361E08DE0E6
:100130000E94EE04D0933601C093350126E040E8DA
:1001400055E260E070E089E391E00E94A90165E07A
:1001500071E089E391E0DF91CF910C94DA0289E3B9
:1001600091E00E94E900EC01E0913501F091360147
:1001700097FD0AC061E080810E942A056C2F89E307
:1001800091E00E945C01EBCF60E080810E942A0533
:1001900062E370E080E090E00E945104E0CFFC0157
:1001A000918D228D892F90E0805C9F4F821B910959
:1001B0008F7399270895FC01918D828D981731F0E6
:1001C000828DE80FF11D858D90E008958FEF9FEFF0
:1001D0000895FC01918D828D981761F0A28DAE0F6C
:1001E000BF2FB11D5D968C91928D9F5F9F73928FF3
:1001F00090E008958FEF9FEF0895FC01538D448D9B
:10020000252F30E0842F90E0821B930B541710F0C1
:10021000CF9608950197089583E692E0892B49F0DF
:1002200080E090E0892B29F00E94630281110C94F8
:1002300000000895FC01A48DA80FB92FB11DA35A89
:10024000BF4F2C91848D90E001968F739927848FF6
:10025000A689B7892C93A089B1898C918370806419
:100260008C93938D848D981306C00288F389E02DBA
:1002700080818F7D80830895CF93DF93EC01888DFB
:100280008823B9F0AA89BB89E889F9898C9185FD11
:1002900003C0808186FD0DC00FB607FCF7CF8C919F
:1002A00085FFF2CF808185FFEDCFCE010E941A013C
:1002B000E9CFDF91CF910895EF92FF920F931F93B3
:1002C000CF93DF93EC0181E0888F9B8D8C8D981309
:1002D0001AC0E889F989808185FF15C09FB7F89415
:1002E000EE89FF896083E889F98980818370806461
:1002F00080839FBF81E090E0DF91CF911F910F91AC
:10030000FF90EF900895F62E0B8D10E00F5F1F4FBA
:100310000F731127E02E8C8D8E110CC00FB607FCC9
:10032000FACFE889F989808185FFF5CFCE010E9457
:100330001A01F1CFEB8DEC0FFD2FF11DE35AFF4FAA
:10034000F0829FB7F8940B8FEA89FB8980818062E5
:10035000CFCFCF92DF92EF92FF921F93CF93DF9395
:10036000EC016A017B01122FE889F98982E0808320
:10037000C11481EED806E104F104A1F060E079E057
:100380008DE390E0A70196010E94130621503109E8
:10039000410951095695479537952795211580E1D3
:1003A000380798F0E889F989108260E874E88EE1EE
:1003B00090E0A70196010E941306215031094109DE
:1003C00051095695479537952795EC85FD853083DE
:1003D000EE85FF852083188EEC89FD891083EA89DC
:1003E000FB89808180618083EA89FB8980818860C4
:1003F0008083EA89FB89808180688083EA89FB8920
:1004000080818F7D8083DF91CF911F91FF90EF904E
:10041000DF90CF9008951F920F920FB60F92112484
:100420002F938F939F93EF93FF93E0914901F09166
:100430004A018081E0914F01F091500182FD1BC083
:100440009081809152018F5F8F73209153018217A9
:1004500041F0E0915201F0E0E75CFE4F958F809310
:100460005201FF91EF919F918F912F910F900FBEAD
:100470000F901F9018958081F4CF1F920F920FB6A6
:100480000F9211242F933F934F935F936F937F931A
:100490008F939F93AF93BF93EF93FF9389E391E083
:1004A0000E941A01FF91EF91BF91AF919F918F919F
:1004B0007F916F915F914F913F912F910F900FBE60
:1004C0000F901F90189589E391E00E94CF0021E0E2
:1004D000892B09F420E0822F0895E9E3F1E01382EB
:1004E000128288EE93E0A0E0B0E084839583A68337
:1004F000B78380E291E09183808385EC90E09587DB
:10050000848784EC90E09787868780EC90E0918BDD
:10051000808B81EC90E0938B828B82EC90E0958BCA
:10052000848B86EC90E0978B868B118E128E138EC7
:10053000148E0895AF92BF92CF92DF92EF92FF9206
:100540000F931F93CF93DF936C017B018B01040FFB
:10055000151FEB015E01AE18BF08C017D10759F097
:100560006991D601ED91FC910190F081E02DC601D9
:100570000995892B79F7C501DF91CF911F910F91D3
:10058000FF90EF90DF90CF90BF90AF900895FB0168
:1005900001900020E9F73197AF01461B570BDC01B2
:1005A000ED91FC910280F381E02D09946EE271E0FF
:1005B0000C94C7020F931F93CF93DF938C01D0E06D
:1005C000C0E06115710519F00E94C702EC01C80175
:1005D0000E94D6028C0F9D1FDF91CF911F910F912A
:1005E0000895813039F018F0823051F0089510925A
:1005F0006E00089580916F008D7F80936F00089545
:10060000809170008D7F8093700081E08093B000B6
:100610008091B100887F84608093B1001092B30014
:100620000895CF93C82F80910001C8130DC0E8E64C
:10063000F0E084919FEF909300010E94F10260E04E
:100640008C2FCF910C942A058FEFF7CF1F920F922A
:100650000FB60F9211242F933F934F935F936F9395
:100660007F938F939F93AF93BF93EF93FF9380916B
:10067000D9019091DA01A091DB01B091DC01892BC5
:100680008A2B8B2BD1F19091D601E091D701F0917B
:10069000D8018081892780838091D9019091DA01E6
:1006A000A091DB01B091DC01181619061A061B0691
:1006B0009CF48091D9019091DA01A091DB01B09175
:1006C000DC010197A109B1098093D9019093DA0166
:1006D000A093DB01B093DC01FF91EF91BF91AF914B
:1006E0009F918F917F916F915F914F913F912F914A
:1006F0000F900FBE0F901F901895809100010E94DF
:100700001103EACF08951F920F920FB60F92112492
:100710002F933F934F935F936F937F938F939F9309
:10072000AF93BF93EF93FF93E0910101F09102012A
:100730000995FF91EF91BF91AF919F918F917F911B
:100740006F915F914F913F912F910F900FBE0F903E
:100750001F9018951F920F920FB60F9211242F938E
:100760003F934F935F936F937F938F939F93AF9339
:10077000BF93EF93FF93E0910301F091040109957A
:10078000FF91EF91BF91AF919F918F917F916F9169
:100790005F914F913F912F910F900FBE0F901F903F
:1007A0001895089508950E948A040E94D2030E9419
:1007B0008800CCE0D1E00E94AF002097E1F30E94D6
:1007C0000C01F9CF1F920F920FB60F9211242F93A5
:1007D0003F938F939F93AF93BF938091DE0190914E
:1007E000DF01A091E001B091E1013091DD0123E052
:1007F000230F2D3758F50196A11DB11D2093DD0162
:100800008093DE019093DF01A093E001B093E101BA
:100810008091E2019091E301A091E401B091E501A2
:100820000196A11DB11D8093E2019093E301A09375
:10083000E401B093E501BF91AF919F918F913F91FA
:100840002F910F900FBE0F901F90189526E8230F41
:100850000296A11DB11DD2CF3FB7F8948091E2015D
:100860009091E301A091E401B091E50126B5A89B28
:1008700005C02F3F19F00196A11DB11D3FBFBA2F32
:10088000A92F982F8827BC01CD01620F711D811DF2
:10089000911D42E0660F771F881F991F4A95D1F777
:1008A00008958F929F92AF92BF92CF92DF92EF9274
:1008B000FF926B017C010E942C044B015C01C1146E
:1008C000D104E104F104E9F00E94D1030E942C0458
:1008D000681979098A099B09683E73408105910569
:1008E00070F321E0C21AD108E108F10888EE880E01
:1008F00083E0981EA11CB11CC114D104E104F104D1
:1009000029F7FF90EF90DF90CF90BF90AF909F902E
:100910008F900895789484B5826084BD84B5816099
:1009200084BD85B5826085BD85B5816085BDEEE6F7
:10093000F0E0808181608083E1E8F0E010828081D6
:1009400082608083808181608083E0E8F0E0808144
:1009500081608083E1EBF0E0808184608083E0EB64
:10096000F0E0808181608083EAE7F0E0808184604C
:1009700080838081826080838081816080838081A8
:10098000806880831092C1000895833081F028F43C
:10099000813099F08230A9F008958730A9F088302D
:1009A000C9F08430B1F4809180008F7D03C08091C4
:1009B00080008F7780938000089584B58F7784BD01
:1009C000089584B58F7DFBCF8091B0008F778093A1
:1009D000B00008958091B0008F7DF9CFCF93DF9361
:1009E00090E0FC01E358FF4F24918F569F4FFC018C
:1009F00084918823C9F090E0880F991FFC01E1558C
:100A0000FF4FA591B491FC01EB55FF4FC591D491D7
:100A100061110DC09FB7F8948C91209582238C931F
:100A20008881282328839FBFDF91CF91089562306A
:100A300051F49FB7F8943C91822F809583238C9337
:100A4000E8812E2BEFCF8FB7F894EC912E2B2C93BF
:100A50008FBFEACF1F93CF93DF93282F30E0F901A8
:100A6000E759FF4F8491F901E358FF4FD491F90101
:100A7000EF56FF4FC491CC23A9F0162F81110E948D
:100A8000C504EC2FF0E0EE0FFF1FEB55FF4FA591D3
:100A9000B4918FB7F894EC91111108C0D095DE2372
:100AA000DC938FBFDF91CF911F910895DE2BF8CF9C
:100AB0001F920F920FB60F9211242F933F934F93D3
:100AC0005F936F937F938F939F93AF93BF93EF93B6
:100AD000FF938091E70187FF27C010928500109255
:100AE00084008091E7018F5F8093E7018091E701A7
:100AF000082E000C990B2091E6012817190629F001
:100B000024F08091E7018C30DCF180918400909199
:100B10008500049680349C4908F47BC08091840051
:100B200090918500049677C08091E701082E000C13
:100B3000990B2091E6012817190699F294F2E09199
:100B4000E7018E2FEE0F990BFC01EE0FFF1FE80F50
:100B5000F91FE851FE4F808186FFC3CFE091E70186
:100B60008E2FEE0F990BFC01EE0FFF1FE80FF91F00
:100B7000E851FE4F808160E08F730E942A05B1CF5B
:100B80002091840030918500E091E7018E2FEE0FD7
:100B9000990BFC01EE0FFF1FE80FF91FE851FE4F04
:100BA00081819281820F931F9093890080938800A6
:100BB000E091E7018E2FEE0F990BFC01EE0FFF1F66
:100BC000E80FF91FE851FE4F808186FF11C0E091C8
:100BD000E7018E2FEE0F990BFC01EE0FFF1FE80FC0
:100BE000F91FE851FE4F808161E08F730E942A0552
:100BF000FF91EF91BF91AF919F918F917F916F91F5
:100C00005F914F913F912F910F900FBE0F901F90CA
:100C1000189580E49CE990938900809388008FEF79
:100C20008093E701E5CFA1E21A2EAA1BBB1BFD01B1
:100C30000DC0AA1FBB1FEE1FFF1FA217B307E407BB
:100C4000F50720F0A21BB30BE40BF50B661F771F13
:100C5000881F991F1A9469F76095709580959095F3
:100C60009B01AC01BD01CF010895EE0FFF1F059060
:0A0C7000F491E02D0994F894FFCFF1
:100C7A00FF82038203566F6C742073657269616C1C
:100C8A00206563686F207265616479000000000066
:100C9A005C019A02FD003C01CF00E900DB000D0A6D
:020CAA00000048
:00000001FF
